{
	"data": {
		"bytecode": {
			"linkReferences": {},
			"object": "608060405234801561001057600080fd5b5061056d806100206000396000f3fe608060405234801561001057600080fd5b50600436106100365760003560e01c80631aa3a0081461003b578063f2a40db814610045575b600080fd5b610043610079565b005b61005f600480360381019061005a91906103a4565b61007b565b604051610070959493929190610461565b60405180910390f35b565b6000818154811061008b57600080fd5b90600052602060002090600502016000915090508060000180546100ae90610506565b80601f01602080910402602001604051908101604052809291908181526020018280546100da90610506565b80156101275780601f106100fc57610100808354040283529160200191610127565b820191906000526020600020905b81548152906001019060200180831161010a57829003601f168201915b50505050509080600101805461013c90610506565b80601f016020809104026020016040519081016040528092919081815260200182805461016890610506565b80156101b55780601f1061018a576101008083540402835291602001916101b5565b820191906000526020600020905b81548152906001019060200180831161019857829003601f168201915b5050505050908060020180546101ca90610506565b80601f01602080910402602001604051908101604052809291908181526020018280546101f690610506565b80156102435780601f1061021857610100808354040283529160200191610243565b820191906000526020600020905b81548152906001019060200180831161022657829003601f168201915b50505050509080600301805461025890610506565b80601f016020809104026020016040519081016040528092919081815260200182805461028490610506565b80156102d15780601f106102a6576101008083540402835291602001916102d1565b820191906000526020600020905b8154815290600101906020018083116102b457829003601f168201915b5050505050908060040180546102e690610506565b80601f016020809104026020016040519081016040528092919081815260200182805461031290610506565b801561035f5780601f106103345761010080835404028352916020019161035f565b820191906000526020600020905b81548152906001019060200180831161034257829003601f168201915b5050505050905085565b600080fd5b6000819050919050565b6103818161036e565b811461038c57600080fd5b50565b60008135905061039e81610378565b92915050565b6000602082840312156103ba576103b9610369565b5b60006103c88482850161038f565b91505092915050565b600081519050919050565b600082825260208201905092915050565b60005b8381101561040b5780820151818401526020810190506103f0565b60008484015250505050565b6000601f19601f8301169050919050565b6000610433826103d1565b61043d81856103dc565b935061044d8185602086016103ed565b61045681610417565b840191505092915050565b600060a082019050818103600083015261047b8188610428565b9050818103602083015261048f8187610428565b905081810360408301526104a38186610428565b905081810360608301526104b78185610428565b905081810360808301526104cb8184610428565b90509695505050505050565b7f4e487b7100000000000000000000000000000000000000000000000000000000600052602260045260246000fd5b6000600282049050600182168061051e57607f821691505b602082108103610531576105306104d7565b5b5091905056fea26469706673582212200a74c691cbf80464e002cae14d7ac3bfe5e2a3322f7b9b9489df14d61e64698864736f6c63430008120033",
			"opcodes": "PUSH1 0x80 PUSH1 0x40 MSTORE CALLVALUE DUP1 ISZERO PUSH2 0x10 JUMPI PUSH1 0x0 DUP1 REVERT JUMPDEST POP PUSH2 0x56D DUP1 PUSH2 0x20 PUSH1 0x0 CODECOPY PUSH1 0x0 RETURN INVALID PUSH1 0x80 PUSH1 0x40 MSTORE CALLVALUE DUP1 ISZERO PUSH2 0x10 JUMPI PUSH1 0x0 DUP1 REVERT JUMPDEST POP PUSH1 0x4 CALLDATASIZE LT PUSH2 0x36 JUMPI PUSH1 0x0 CALLDATALOAD PUSH1 0xE0 SHR DUP1 PUSH4 0x1AA3A008 EQ PUSH2 0x3B JUMPI DUP1 PUSH4 0xF2A40DB8 EQ PUSH2 0x45 JUMPI JUMPDEST PUSH1 0x0 DUP1 REVERT JUMPDEST PUSH2 0x43 PUSH2 0x79 JUMP JUMPDEST STOP JUMPDEST PUSH2 0x5F PUSH1 0x4 DUP1 CALLDATASIZE SUB DUP2 ADD SWAP1 PUSH2 0x5A SWAP2 SWAP1 PUSH2 0x3A4 JUMP JUMPDEST PUSH2 0x7B JUMP JUMPDEST PUSH1 0x40 MLOAD PUSH2 0x70 SWAP6 SWAP5 SWAP4 SWAP3 SWAP2 SWAP1 PUSH2 0x461 JUMP JUMPDEST PUSH1 0x40 MLOAD DUP1 SWAP2 SUB SWAP1 RETURN JUMPDEST JUMP JUMPDEST PUSH1 0x0 DUP2 DUP2 SLOAD DUP2 LT PUSH2 0x8B JUMPI PUSH1 0x0 DUP1 REVERT JUMPDEST SWAP1 PUSH1 0x0 MSTORE PUSH1 0x20 PUSH1 0x0 KECCAK256 SWAP1 PUSH1 0x5 MUL ADD PUSH1 0x0 SWAP2 POP SWAP1 POP DUP1 PUSH1 0x0 ADD DUP1 SLOAD PUSH2 0xAE SWAP1 PUSH2 0x506 JUMP JUMPDEST DUP1 PUSH1 0x1F ADD PUSH1 0x20 DUP1 SWAP2 DIV MUL PUSH1 0x20 ADD PUSH1 0x40 MLOAD SWAP1 DUP2 ADD PUSH1 0x40 MSTORE DUP1 SWAP3 SWAP2 SWAP1 DUP2 DUP2 MSTORE PUSH1 0x20 ADD DUP3 DUP1 SLOAD PUSH2 0xDA SWAP1 PUSH2 0x506 JUMP JUMPDEST DUP1 ISZERO PUSH2 0x127 JUMPI DUP1 PUSH1 0x1F LT PUSH2 0xFC JUMPI PUSH2 0x100 DUP1 DUP4 SLOAD DIV MUL DUP4 MSTORE SWAP2 PUSH1 0x20 ADD SWAP2 PUSH2 0x127 JUMP JUMPDEST DUP3 ADD SWAP2 SWAP1 PUSH1 0x0 MSTORE PUSH1 0x20 PUSH1 0x0 KECCAK256 SWAP1 JUMPDEST DUP2 SLOAD DUP2 MSTORE SWAP1 PUSH1 0x1 ADD SWAP1 PUSH1 0x20 ADD DUP1 DUP4 GT PUSH2 0x10A JUMPI DUP3 SWAP1 SUB PUSH1 0x1F AND DUP3 ADD SWAP2 JUMPDEST POP POP POP POP POP SWAP1 DUP1 PUSH1 0x1 ADD DUP1 SLOAD PUSH2 0x13C SWAP1 PUSH2 0x506 JUMP JUMPDEST DUP1 PUSH1 0x1F ADD PUSH1 0x20 DUP1 SWAP2 DIV MUL PUSH1 0x20 ADD PUSH1 0x40 MLOAD SWAP1 DUP2 ADD PUSH1 0x40 MSTORE DUP1 SWAP3 SWAP2 SWAP1 DUP2 DUP2 MSTORE PUSH1 0x20 ADD DUP3 DUP1 SLOAD PUSH2 0x168 SWAP1 PUSH2 0x506 JUMP JUMPDEST DUP1 ISZERO PUSH2 0x1B5 JUMPI DUP1 PUSH1 0x1F LT PUSH2 0x18A JUMPI PUSH2 0x100 DUP1 DUP4 SLOAD DIV MUL DUP4 MSTORE SWAP2 PUSH1 0x20 ADD SWAP2 PUSH2 0x1B5 JUMP JUMPDEST DUP3 ADD SWAP2 SWAP1 PUSH1 0x0 MSTORE PUSH1 0x20 PUSH1 0x0 KECCAK256 SWAP1 JUMPDEST DUP2 SLOAD DUP2 MSTORE SWAP1 PUSH1 0x1 ADD SWAP1 PUSH1 0x20 ADD DUP1 DUP4 GT PUSH2 0x198 JUMPI DUP3 SWAP1 SUB PUSH1 0x1F AND DUP3 ADD SWAP2 JUMPDEST POP POP POP POP POP SWAP1 DUP1 PUSH1 0x2 ADD DUP1 SLOAD PUSH2 0x1CA SWAP1 PUSH2 0x506 JUMP JUMPDEST DUP1 PUSH1 0x1F ADD PUSH1 0x20 DUP1 SWAP2 DIV MUL PUSH1 0x20 ADD PUSH1 0x40 MLOAD SWAP1 DUP2 ADD PUSH1 0x40 MSTORE DUP1 SWAP3 SWAP2 SWAP1 DUP2 DUP2 MSTORE PUSH1 0x20 ADD DUP3 DUP1 SLOAD PUSH2 0x1F6 SWAP1 PUSH2 0x506 JUMP JUMPDEST DUP1 ISZERO PUSH2 0x243 JUMPI DUP1 PUSH1 0x1F LT PUSH2 0x218 JUMPI PUSH2 0x100 DUP1 DUP4 SLOAD DIV MUL DUP4 MSTORE SWAP2 PUSH1 0x20 ADD SWAP2 PUSH2 0x243 JUMP JUMPDEST DUP3 ADD SWAP2 SWAP1 PUSH1 0x0 MSTORE PUSH1 0x20 PUSH1 0x0 KECCAK256 SWAP1 JUMPDEST DUP2 SLOAD DUP2 MSTORE SWAP1 PUSH1 0x1 ADD SWAP1 PUSH1 0x20 ADD DUP1 DUP4 GT PUSH2 0x226 JUMPI DUP3 SWAP1 SUB PUSH1 0x1F AND DUP3 ADD SWAP2 JUMPDEST POP POP POP POP POP SWAP1 DUP1 PUSH1 0x3 ADD DUP1 SLOAD PUSH2 0x258 SWAP1 PUSH2 0x506 JUMP JUMPDEST DUP1 PUSH1 0x1F ADD PUSH1 0x20 DUP1 SWAP2 DIV MUL PUSH1 0x20 ADD PUSH1 0x40 MLOAD SWAP1 DUP2 ADD PUSH1 0x40 MSTORE DUP1 SWAP3 SWAP2 SWAP1 DUP2 DUP2 MSTORE PUSH1 0x20 ADD DUP3 DUP1 SLOAD PUSH2 0x284 SWAP1 PUSH2 0x506 JUMP JUMPDEST DUP1 ISZERO PUSH2 0x2D1 JUMPI DUP1 PUSH1 0x1F LT PUSH2 0x2A6 JUMPI PUSH2 0x100 DUP1 DUP4 SLOAD DIV MUL DUP4 MSTORE SWAP2 PUSH1 0x20 ADD SWAP2 PUSH2 0x2D1 JUMP JUMPDEST DUP3 ADD SWAP2 SWAP1 PUSH1 0x0 MSTORE PUSH1 0x20 PUSH1 0x0 KECCAK256 SWAP1 JUMPDEST DUP2 SLOAD DUP2 MSTORE SWAP1 PUSH1 0x1 ADD SWAP1 PUSH1 0x20 ADD DUP1 DUP4 GT PUSH2 0x2B4 JUMPI DUP3 SWAP1 SUB PUSH1 0x1F AND DUP3 ADD SWAP2 JUMPDEST POP POP POP POP POP SWAP1 DUP1 PUSH1 0x4 ADD DUP1 SLOAD PUSH2 0x2E6 SWAP1 PUSH2 0x506 JUMP JUMPDEST DUP1 PUSH1 0x1F ADD PUSH1 0x20 DUP1 SWAP2 DIV MUL PUSH1 0x20 ADD PUSH1 0x40 MLOAD SWAP1 DUP2 ADD PUSH1 0x40 MSTORE DUP1 SWAP3 SWAP2 SWAP1 DUP2 DUP2 MSTORE PUSH1 0x20 ADD DUP3 DUP1 SLOAD PUSH2 0x312 SWAP1 PUSH2 0x506 JUMP JUMPDEST DUP1 ISZERO PUSH2 0x35F JUMPI DUP1 PUSH1 0x1F LT PUSH2 0x334 JUMPI PUSH2 0x100 DUP1 DUP4 SLOAD DIV MUL DUP4 MSTORE SWAP2 PUSH1 0x20 ADD SWAP2 PUSH2 0x35F JUMP JUMPDEST DUP3 ADD SWAP2 SWAP1 PUSH1 0x0 MSTORE PUSH1 0x20 PUSH1 0x0 KECCAK256 SWAP1 JUMPDEST DUP2 SLOAD DUP2 MSTORE SWAP1 PUSH1 0x1 ADD SWAP1 PUSH1 0x20 ADD DUP1 DUP4 GT PUSH2 0x342 JUMPI DUP3 SWAP1 SUB PUSH1 0x1F AND DUP3 ADD SWAP2 JUMPDEST POP POP POP POP POP SWAP1 POP DUP6 JUMP JUMPDEST PUSH1 0x0 DUP1 REVERT JUMPDEST PUSH1 0x0 DUP2 SWAP1 POP SWAP2 SWAP1 POP JUMP JUMPDEST PUSH2 0x381 DUP2 PUSH2 0x36E JUMP JUMPDEST DUP2 EQ PUSH2 0x38C JUMPI PUSH1 0x0 DUP1 REVERT JUMPDEST POP JUMP JUMPDEST PUSH1 0x0 DUP2 CALLDATALOAD SWAP1 POP PUSH2 0x39E DUP2 PUSH2 0x378 JUMP JUMPDEST SWAP3 SWAP2 POP POP JUMP JUMPDEST PUSH1 0x0 PUSH1 0x20 DUP3 DUP5 SUB SLT ISZERO PUSH2 0x3BA JUMPI PUSH2 0x3B9 PUSH2 0x369 JUMP JUMPDEST JUMPDEST PUSH1 0x0 PUSH2 0x3C8 DUP5 DUP3 DUP6 ADD PUSH2 0x38F JUMP JUMPDEST SWAP2 POP POP SWAP3 SWAP2 POP POP JUMP JUMPDEST PUSH1 0x0 DUP2 MLOAD SWAP1 POP SWAP2 SWAP1 POP JUMP JUMPDEST PUSH1 0x0 DUP3 DUP3 MSTORE PUSH1 0x20 DUP3 ADD SWAP1 POP SWAP3 SWAP2 POP POP JUMP JUMPDEST PUSH1 0x0 JUMPDEST DUP4 DUP2 LT ISZERO PUSH2 0x40B JUMPI DUP1 DUP3 ADD MLOAD DUP2 DUP5 ADD MSTORE PUSH1 0x20 DUP2 ADD SWAP1 POP PUSH2 0x3F0 JUMP JUMPDEST PUSH1 0x0 DUP5 DUP5 ADD MSTORE POP POP POP POP JUMP JUMPDEST PUSH1 0x0 PUSH1 0x1F NOT PUSH1 0x1F DUP4 ADD AND SWAP1 POP SWAP2 SWAP1 POP JUMP JUMPDEST PUSH1 0x0 PUSH2 0x433 DUP3 PUSH2 0x3D1 JUMP JUMPDEST PUSH2 0x43D DUP2 DUP6 PUSH2 0x3DC JUMP JUMPDEST SWAP4 POP PUSH2 0x44D DUP2 DUP6 PUSH1 0x20 DUP7 ADD PUSH2 0x3ED JUMP JUMPDEST PUSH2 0x456 DUP2 PUSH2 0x417 JUMP JUMPDEST DUP5 ADD SWAP2 POP POP SWAP3 SWAP2 POP POP JUMP JUMPDEST PUSH1 0x0 PUSH1 0xA0 DUP3 ADD SWAP1 POP DUP2 DUP2 SUB PUSH1 0x0 DUP4 ADD MSTORE PUSH2 0x47B DUP2 DUP9 PUSH2 0x428 JUMP JUMPDEST SWAP1 POP DUP2 DUP2 SUB PUSH1 0x20 DUP4 ADD MSTORE PUSH2 0x48F DUP2 DUP8 PUSH2 0x428 JUMP JUMPDEST SWAP1 POP DUP2 DUP2 SUB PUSH1 0x40 DUP4 ADD MSTORE PUSH2 0x4A3 DUP2 DUP7 PUSH2 0x428 JUMP JUMPDEST SWAP1 POP DUP2 DUP2 SUB PUSH1 0x60 DUP4 ADD MSTORE PUSH2 0x4B7 DUP2 DUP6 PUSH2 0x428 JUMP JUMPDEST SWAP1 POP DUP2 DUP2 SUB PUSH1 0x80 DUP4 ADD MSTORE PUSH2 0x4CB DUP2 DUP5 PUSH2 0x428 JUMP JUMPDEST SWAP1 POP SWAP7 SWAP6 POP POP POP POP POP POP JUMP JUMPDEST PUSH32 0x4E487B7100000000000000000000000000000000000000000000000000000000 PUSH1 0x0 MSTORE PUSH1 0x22 PUSH1 0x4 MSTORE PUSH1 0x24 PUSH1 0x0 REVERT JUMPDEST PUSH1 0x0 PUSH1 0x2 DUP3 DIV SWAP1 POP PUSH1 0x1 DUP3 AND DUP1 PUSH2 0x51E JUMPI PUSH1 0x7F DUP3 AND SWAP2 POP JUMPDEST PUSH1 0x20 DUP3 LT DUP2 SUB PUSH2 0x531 JUMPI PUSH2 0x530 PUSH2 0x4D7 JUMP JUMPDEST JUMPDEST POP SWAP2 SWAP1 POP JUMP INVALID LOG2 PUSH5 0x6970667358 0x22 SLT KECCAK256 EXP PUSH21 0xC691CBF80464E002CAE14D7AC3BFE5E2A3322F7B9B SWAP5 DUP10 0xDF EQ 0xD6 0x1E PUSH5 0x698864736F PUSH13 0x63430008120033000000000000 "
		},
		"gasEstimates": {
			"creation": {
				"codeDepositCost": "277800",
				"executionCost": "318",
				"totalCost": "278118"
			},
			"external": {
				"accounts(uint256)": "infinite",
				"register()": "122"
			}
		},
		"methodIdentifiers": {
			"accounts(uint256)": "f2a40db8",
			"register()": "1aa3a008"
		}
	},
	"abi": [
		{
			"inputs": [
				{
					"internalType": "uint256",
					"name": "",
					"type": "uint256"
				}
			],
			"name": "accounts",
			"outputs": [
				{
					"internalType": "string",
					"name": "username",
					"type": "string"
				},
				{
					"internalType": "string",
					"name": "password",
					"type": "string"
				},
				{
					"internalType": "string",
					"name": "firstName",
					"type": "string"
				},
				{
					"internalType": "string",
					"name": "lastName",
					"type": "string"
				},
				{
					"internalType": "string",
					"name": "ssn",
					"type": "string"
				}
			],
			"stateMutability": "view",
			"type": "function"
		},
		{
			"inputs": [],
			"name": "register",
			"outputs": [],
			"stateMutability": "nonpayable",
			"type": "function"
		}
	]
}